:020000040800F2
:10000000A0260020390300088F390008FD320008BF
:100010008D3900086F060008DB450008000000006D
:10002000000000000000000000000000790200084D
:10003000C906000800000000D5020008793B00084E
:100040005303000853030008530300085303000838
:100050005303000853030008530300085303000828
:100060005303000853030008530300085303000818
:100070005303000853030008530300085303000808
:1000800053030008530300085303000853030008F8
:10009000530300085303000853030008CB0600086D
:1000A00053030008530300085303000853030008D8
:1000B00053030008530300085303000853030008C8
:1000C00053030008530300085303000853030008B8
:1000D00053030008530300085303000853030008A8
:1000E0005303000853030008530300085303000898
:1000F0005303000853030008530300085303000888
:100100005303000853030008530300085303000877
:100110005303000853030008113C00085303000870
:100120005303000853030008530300085303000857
:100130005303000853030008530300085303000847
:100140005303000853030008530300085303000837
:100150005303000853030008530300085303000827
:100160005303000853030008530300085303000817
:100170005303000853030008530300085303000807
:1001800053030008530300085303000853030008F7
:100190005303000800000000530300085303000845
:1001A00053030008530300085303000853030008D7
:1001B00053030008530300085303000853030008C7
:1001C00053030008530300085303000853030008B7
:1001D000530300085303000800F002F800F03CF855
:1001E0000AA090E8000C82448344AAF10107DA4592
:1001F00001D100F031F8AFF2090EBAE80F0013F0A8
:10020000010F18BFFB1A43F001031847C85C000038
:10021000E85C0000103A24BF78C878C1FAD85207C9
:1002200024BF30C830C144BF04680C607047000070
:100230000023002400250026103A28BF78C1FBD8EF
:10024000520728BF30C148BF0B6070471FB505F08B
:1002500003FE1FBD10B510BD00F0D0F91146FFF729
:10026000F5FF04F0CBF900F0EEF903B4FFF7F2FF6D
:1002700003BC00F0F5F900002C4B19680868B0E8E1
:10028000F04F80F30988BFF36F8F4FF0000080F3C9
:10029000118870470000000008480068006880F37B
:1002A00008884FF0000080F3148862B661B6BFF38F
:1002B0004F8FBFF36F8F00DF00BF00BF08ED00E07E
:1002C000DFF80C00016841F470010160704700BF65
:1002D00088ED00E0EFF30980BFF36F8F134B1A68CE
:1002E0001EF0100F08BF20ED108A20E9F04F1060BB
:1002F00009B44FF0500080F31188BFF34F8FBFF364
:100300006F8F05F07BF84FF0000080F3118809BC77
:1003100019680868B0E8F04F1EF0100F08BFB0EC85
:10032000108A80F30988BFF36F8F70471C0000208C
:10033000EFF30580704700000948804709480047EF
:10034000FEE7FEE7FEE7FEE7FEE7FEE7FEE7FEE785
:10035000FEE7FEE704480549054A064B70470000E2
:10036000013C0008D9010008A0200020A0260020A0
:10037000A0220020A022002053EA020C00F0698095
:100380002DE9F04B4FF00006002B1FBFB3FA83F5A9
:1003900003FA05F424FA05F65E4012BF1643B2FADA
:1003A00082F502FA05F4C5F120051EBF22FA05FC0C
:1003B00044EA0C04203556EA044C4FEA144418BFB2
:1003C000641C4FF000084FF00009904271EB030CE1
:1003D00039D3002919BFB1FA81F701FA07F6B0FA4B
:1003E00080F700FA07F6C7F120071EBF20FA07FCC6
:1003F00046EA0C062037B6FBF4FCA7EB0507103FD6
:1004000007F01F0BCBF120060CFA0BFB2CFA06F6BB
:1004100044BFB3460026202FA4BF5E464FF0000B1A
:100420005BEA060C08BF4FF0010B19EB0B09ABFBA5
:10043000027C48EB0608C01B06FB02CC0BFB03CC7E
:1004400071EB0C01C1E70B46024641464846BDE848
:10045000F08B13B54FF000004FF00001AFF30080B8
:10046000BDE81C407047032A40F2308010F0030CB6
:1004700000F0158011F8013BBCF1020F624498BFF7
:1004800011F801CB00F8013B38BF11F8013BA2F194
:10049000040298BF00F801CB38BF00F8013B11F00F
:1004A000030300F05780083AC0F0088051F8043B7D
:1004B000083A51F804CBA0E80810F5E7121D5CBF1C
:1004C00051F8043B40F8043BAFF30080D20724BF4F
:1004D00011F8013B11F801CB48BF11F8012B24BFE3
:1004E00000F8013B00F801CB48BF00F8012B704732
:1004F00002F0FF0343EA032242EA024200F05EB840
:100500004FF0000200B5134694469646203922BFAC
:10051000A0E80C50A0E80C50B1F12001BFF4F7AFF7
:10052000090728BFA0E80C5048BF0CC05DF804EBD9
:10053000890028BF40F8042B08BF704748BF20F847
:10054000022B11F0804F18BF00F8012B7047704745
:100550007047704710B5203AC0F00B80B1E81850D2
:10056000203AA0E81850B1E81850A0E81850BFF49D
:10057000F5AF5FEA027C24BFB1E81850A0E818503C
:1005800044BF18C918C0BDE810405FEA827C24BF90
:1005900051F8043B40F8043B08BF7047D20728BF1E
:1005A00031F8023B48BF11F8012B28BF20F8023B6D
:1005B00048BF00F8012B70474FF000020429C0F03B
:1005C000128010F0030C3FF49DAFCCF1040CBCF191
:1005D000020F18BF00F8012BA8BF20F8022BA1EBD7
:1005E0000C01FFF78FBF5FEAC17C24BF00F8012B2D
:1005F00000F8012B48BF00F8012B7047754600F04A
:100600002BF8AE4605006946534620F007008546A4
:1006100018B020B5FFF79EFEBDE820404FF0000661
:100620004FF000074FF000084FF0000B21F00701DA
:10063000AC46ACE8C009ACE8C009ACE8C009ACE81D
:10064000C0098D46704710B50446AFF300802046C0
:10065000BDE81040FFF709BE004870473C2000206D
:1006600001491820ABBEFEE7260002007047FEE7F6
:10067000FEB50C464FF4F04101EAC02040F40040C2
:100680000F4EADF8040000220421304601F094F82A
:1006900064200090012302AA01A90A4802F0E6F8AA
:1006A0000546084802F016F80128FAD10122042173
:1006B000304601F081F8BDF8080020802846FEBDD4
:1006C000000C0048980200207047802000F044BFD2
:1006D00072B6FEE72DE9F04F044690F858009BB043
:1006E0000F464FF0000B012812D0012084F858006B
:1006F00000261796189620684FF0A048DFF81C9146
:10070000DFF81CA1474D404506D12846009508E07A
:1007100002201BB0BDE8F08F48450AD15046CDF805
:1007200000A002F0FAFD0090206802F0F6FD40B152
:1007300009E0E06D40F02000E06584F85860012099
:10074000E7E7009850B1E06D40F02000E0654FF021
:10075000010B00BF84F858605846DAE7206841462C
:10076000884201D0A84201D12F4800E02F48D7F895
:1007700000C02F4B40F61F72BCF1000F2DD0D0F8F7
:1007800008C094F838802CF4604C4CEA483CD7F808
:1007900004804CEA080CC0F808C0D4F800C08C45AE
:1007A00001D0AC4504D18968AB6801F0010109E0D2
:1007B000D9F80810DAF8085001F0010105F0010538
:1007C0009B68294303F001031943C3D1BB6839680F
:1007D00019438368934319431DE0876827F46047F2
:1007E000876027688F4201D0AF4204D18968AB6827
:1007F00001F0010109E0D9F80810DAF8085001F019
:10080000010105F001059B68294303F00103194329
:10081000A0D18168914381609CE7000000040050F2
:100820000005005000010050000300500007005078
:10083000000600502DE9F84F00270446009790F875
:100840005800DFF81C840D46B946012811D0012656
:1008500084F85860206802F05CFD60B1E06D40F003
:100860002000E0655FF0010784F858903846BDE845
:10087000F88F0220FBE7D5E900210C23206803EA6A
:1008800091131844036B01F01F014FF01F0C0CFA79
:1008900001FCC2F3846223EA0C038A40134303631E
:1008A000206802F036FD8246206802F02EFD5AEAEA
:1008B00000003CD1AA6829682068B2F1004F37D007
:1008C00002F02FFD2068416921F00041416120685C
:1008D0006969C268C2F3C102520091402A69042AC0
:1008E00031D000EB82002B68026EDFF878C303F092
:1008F000F84302EA0C020B431A4342F0004101663E
:1009000022682869A96902EB8000026E22F08072D9
:100910000A430266297F22682869012910D0002134
:1009200002EB8000026E22F000720A4302667DE054
:10093000002202F0F6FC2068416941F00041C5E761
:100940004FF00071ECE7002102F0D9FC4003206871
:100950004FF0000172D002F0D2FC90FAA0F0B0FA91
:1009600080F1286842036ED090FAA0F0B0FA80F0CF
:10097000814204D100221146206802F0E1FC0121ED
:10098000206802F0BCFC400320684FF001015DD0FC
:1009900002F0B5FC90FAA0F0B0FA80F128684203AA
:1009A00059D090FAA0F0B0FA80F0814204D1002230
:1009B0000121206802F0C4FC0221206802F09FFCA3
:1009C000400320684FF0020148D002F098FC90FAF2
:1009D000A0F0B0FA80F12868420344D090FAA0F069
:1009E000B0FA80F0814204D100220221206802F096
:1009F000A7FC0321206802F082FC400320684FF02E
:100A0000030133D002F07BFC90FAA0F0B0FA80F141
:100A1000286842032FD090FAA0F0B0FA80F081420B
:100A200004D100220321206802F08AFC206881683A
:100A300011F0010F22D0ACE000E004E002F05FFC16
:100A4000C0F384618DE7C0F3846091E702F057FC46
:100A5000C0F38461A2E7C0F38460A6E702F04FFC14
:100A6000C0F38461B7E7C0F38460BBE702F047FCE2
:100A7000C0F38461CCE7C0F38460D0E72A7B2968A7
:100A800050F8B03FC1F3120C23EA0C0302F0180C2B
:100A9000754A22FA0CF20A4013430360E9684145A3
:100AA00077D1286841031CD090FAA0F1B1FA81F106
:100AB000491C01F01F0109294FEA403132D80029B1
:100AC00012D000BF90FAA0F1B1FA81F101F1010159
:100AD00001F01F0106FA01F609D100BFC0F38461DD
:100AE00009E0C0F38461E3E7C0F38461EEE790FAC4
:100AF000A0F1B1FA81F101F1010101F01F0146EA13
:100B0000816102D1C0F3846003E090FAA0F0B0FAF2
:100B100080F000F1010000F01F0000EB400041EA0E
:100B2000005132E000290ED090FAA0F1B1FA81F123
:100B300001F1010101F01F0106FA01F606D100BF23
:100B4000C0F3846106E0C0F38461F1E790FAA0F19C
:100B5000B1FA81F101F1010101F01F0146EA816161
:100B600002D1C0F3846003E090FAA0F0B0FA80F004
:100B700000F1010000F01F003C4A00EB400002EBD6
:100B8000005041EA000141F00071AA68206802F0BB
:100B9000C8FB37482B6803423FF466AE21684FF02C
:100BA000A04C3448344E354D614501D0A94201D1A5
:100BB000024600E032469268DFF8C48002F0E0723C
:100BC000434503D0DFF8BC80434521D15FEA0228CA
:100BD0001ED4614506D02C4B99427FF445AEA94204
:100BE00000D0304642F40001826822F0E0720A43ED
:100BF0008260264826490068B0FBF1F0401C00EBFB
:100C00004000800000E0401E00900028FBD12BE651
:100C1000DFF8808043450FD15FEAC2180CD4A942A7
:100C200002D11D4B9942F2D0614502D0A94200D0B9
:100C3000304642F080710CE0DFF860804345E6D139
:100C40005302E4D4A942E2D0614500D0304642F4D8
:100C50008001826822F0E0720A43826004E60000AC
:100C600000007F4000F0FF03FFFF0700000020FEB0
:100C700000000880000300500007005000010050F1
:100C8000000021C31000C090000600501800002092
:100C9000400D0300000052C700050050000084CB47
:100CA000F8B54FF0000504002E46009502D0E06D27
:100CB00010B107E00120F8BD204600F009F92666D2
:100CC00084F8586020688168C1F3407119B1816867
:100CD000734A1140816020688168C1F3007189B94D
:100CE0008168704A114041F0805181606E486F49BF
:100CF0000068B0FBF1F04000801C00E0401E009056
:100D00000028FBD120688168C1F3007141B9E16D11
:100D100041F01001E165216E41F0010121660125DC
:100D200002F0F7FAE16DC90600D430B1E06D40F091
:100D30001000E06501252846F8BDE06D20F48070C4
:100D400040F00200E0652068816811F0010F27D1B2
:100D50004FF0A043564A984201D0904204D199687E
:100D6000966801F001010AE052498968524E01F08B
:100D70000101B66806F001063143504EB66806F030
:100D8000010631430CD1984201D0904201D14C4828
:100D900000E04C486168826822F47C120A43826059
:100DA000E168E06B627F0843A16841EA4231084391
:100DB00094F8241040EA0140012904D1218D424ACF
:100DC00002EB41410843E16A29B101F47871226BD9
:100DD000014342EA01002268D1683C4B19400143BB
:100DE000D16020680169626B21F0406111430161AB
:100DF000206802F08AFA70BB207F94F838102268CD
:100E0000800340EA4100D16844F202039943014360
:100E1000D16020690028206801690AD041F480313E
:100E20000161206850F8C01F22696FF30D01114362
:100E300007E021F480310161206850F8C01F6FF392
:100E40000D01016094F8400001280CD02068016970
:100E500021F001010161606901282068016B21F026
:100E60000F0111D013E0D4E911010843D4E91312A2
:100E70001143084321680A6940F2FC739A43104306
:100E800040F001000861E6E7226A521E1143016347
:100E9000E06D20F0020040F00100E0654BE700004B
:100EA000C0FFFF5FC0FFFF7F18000020400D030060
:100EB00000010050000400500005005000060050E2
:100EC00000030050000700500000FEFF0740F0FF45
:100ED0002DE9F0419CB00446142115A8FFF710FB42
:100EE00054216846FFF70CFB4FF4004120680025B1
:100EF0008A03314F0326314C4FF09048B0F1A04F98
:100F000010D02F4B984254D168461192009100F0B6
:100F1000F5FE08B1FFF7DCFB3868401C386001289B
:100F20002FD036E068461192009100F0E7FE08B13C
:100F3000FFF7CEFB3868401C3860012807D1E06C11
:100F400040F40050E064E06C00F400501A90E06C53
:100F500040F00400E064E06C00F004001A90E06CE3
:100F600040F00100E064E06C179500F001001A9079
:100F70000220CDE9150615A9124800F0F9FA0A2059
:100F800010E0E06C40F40050E064E06C00F40050CD
:100F90001A90E06C40F00100E064E06C00F00100A9
:100FA0001A90F0201795CDE9150615A9404600F0D6
:100FB000DFFA1CB0BDE8F0810800002000100240FC
:100FC00000010050000800482DE9F84F04004FF0E0
:100FD00000000546009003D021680968002901DA65
:100FE0000125FCE0617F21B920772062204600F0D6
:100FF0000BF921680868E66800F40003D4E90120D1
:101000001043626932431043226910430A68754EE7
:10101000324002430A60D4F800C0DCF8000000024D
:101020000ED56BB9704871490068B0FBF1F0401CF7
:1010300000EB8000800000E0401E00900028FBD103
:101040006B486B4914308C4502D14FF400111EE0FF
:101050006749091D8C4502D14FF4800117E06449AE
:1010600008318C4501D1890611E061490C318C456C
:1010700002D14FF080410AE05D4910318C4501D129
:10108000C90604E0844501D1012100E00221A269E2
:10109000584B92465FEA8278574E584AA3F10407AC
:1010A000A6F1040977D05FEACA6803F1040A06F1E1
:1010B000040B0BD5844501D0944501D1D44600E002
:1010C000DC46DCF8008048EA01080AE0844501D0EB
:1010D000944501D1D44600E0DC46DCF8008028EAE3
:1010E0000108CCF8008094F818C0DFF818A15FEA76
:1010F0008C68DFF80CC1D4F8008009D5804502D097
:10110000904500D0D446DCF8008048EA010808E0A9
:10111000804502D0904500D0D446DCF8008028EA13
:101120000108CCF80080D4F800C0844501D0944573
:1011300004D1DFF8CCC00CF1080C03E0DFF8C4C028
:101140000CF1080CCCF8001094F818C05FEA8C7C05
:10115000D4F800C009D5844501D0944502D11E6859
:101160000E4308E033680B4309E0844501D0944501
:1011700003D11E688E431E6002E033688B433360E8
:10118000237EDB070DD02368834201D0934203D135
:10119000386808430CE00DE0D9F8002048460A43BF
:1011A00018E02368834201D093420FD13868884306
:1011B000386010E0844501D0944503D11E688E4309
:1011C0001E60EEE733688B433360EAE7D9F800200E
:1011D00048468A430260607F08B90120607728464C
:1011E000BDE8F88F0F7E00FF18000020400D0300BF
:1011F000000201402404014004040140180201409F
:101200002C0401400C04014030B587B00446142181
:101210006846FFF775F924681C4D00231C4903221A
:101220004FF09040AC420AD1CC6C44F00104CC6445
:10123000C96C009201F001010591694623E0134D4C
:101240002D1DAC4210D1CC6C44F00104CC64C96CAF
:1012500001F0010105910C218DE80E004FEA0D010E
:1012600000F086F907B030BD084808308442F9D153
:10127000C86C40F00400C864C86C009200F0040020
:10128000059004486946CDE90123E9E700020140E1
:10129000001002400008004870B5044600F092FAC1
:1012A0000546601C02D004484068044400F08AFAF5
:1012B000401BA042FAD370BD0C0000202DE9F04184
:1012C000040006D0DFF8F48194F85C00002518B122
:1012D00007E00120BDE8F08184F85D50204600F071
:1012E000F9F82068816921F01001816100F06AFA43
:1012F0000646032705E000BF00F064FA801B0A28B9
:1013000011D8206880690007F6D42068816941F00F
:101310000101816100F056FA06460BE000F052FA36
:10132000801B0A2806D9206E40F00100206684F850
:101330005C70CEE720688069C007EFD020688169C3
:1013400041F0020181612168414502D15C49606838
:101350000860207C01282068816937D041F0400175
:101360008161607C01282068816932D021F480414C
:101370008161A07C0128206881692DD041F48051D1
:10138000816120688169A26821F440711143816103
:101390002068816921F0A40181612068016921F040
:1013A00010010161E068012819D010B302281BD098
:1013B0002068816941F0800181612068016941F004
:1013C00010010161E06803280ED012E021F0400115
:1013D000C6E741F48041CBE721F48051D0E7206893
:1013E000816941F0040103E02068816941F0200136
:1013F0008161207EE26940066FF0FF0101EB02226D
:10140000A0F100701043226AA38A521E10430A0200
:1014100002EB034318432368D861A068B0F5407F0E
:1014200010D1D4E90A0301EB0321401E0843216BCC
:10143000131303EB01110843A18C02EB0141084394
:101440002168C860206850F8C01FE26B114301603A
:101450001D4A21681B48914200D11C481C4A9142F8
:1014600001D100F5D460206451F8802FA38E22F4BE
:10147000F81242EA03420A6000F1700161642168D7
:1014800051F8802F94F8383022F0706242EA0362FB
:101490000A6000F1B001A164D831E164D83121655E
:1014A00018316165D83100E020C08842FCD3A565C1
:1014B0002566012084F85C0000200BE700640040F2
:1014C0000065004000A400400068004050A70040B4
:1014D000006C004010B59CB00446142115A8FFF71D
:1014E0000FF854216846FFF70BF817492068884227
:1014F00028D18014009040030E90684600F0FEFB57
:1015000008B1FFF7E5F81148816D41F00071816580
:10151000816D01F000711A91C16C41F00201C1644A
:10152000C06C15A900F002001A904FF4407015909D
:101530000220169000201790189009201990044856
:1015400000F016F81CB010BD00640040001002400E
:101550000004004870470000044910B50A680242C0
:1015600002D00860FFF7F6FF10BD00001404014030
:101570002DE9F04FDFF82092002301260324A9F182
:10158000040B85B00F2709F1040AABF1040EFAE051
:1015900006FA03F52A407CD091F804C00CF0030C45
:1015A000BCF1010F02D0BCF1020F26D1D0F808C067
:1015B000CDF800C04FEA430C04FA0CF8CDF810C087
:1015C000DDF800C02CEA080CCDF800C0D1F80C8082
:1015D000DDF810C008FA0CF8DDF800C048EA0C0885
:1015E000C0F80880D0F804C02CEA050C0D79C5F3CA
:1015F00000159D4045EA0C0545600D79ED43AD07AA
:101600000ED0C5684FEA430804FA08FC25EA0C0529
:10161000D1F808C00CFA08FC4CEA050CC0F80CC064
:101620000D7905F00305022D16D1DD0800EB850CC0
:10163000CDF808C0DCF820805D074FEAD56C07FACA
:101640000CF528EA05080D6905FA0CF5DDF808C067
:1016500045EA0805CCF8205005684FEA430CCDF860
:1016600008C004FA0CFC25EA0C0591F804C00CF043
:101670000308DDF808C008FA0CF848EA0508C0F8C5
:1016800000804D6815F4403F7CD0444DD5F860C0D3
:1016900000E077E04CF0010CC5F860C02D6E23F03F
:1016A000030C05F0010500953D4D65440295AD68BC
:1016B0004FEA837C4FEA1C7807FA08FC25EA0C0500
:1016C000B0F1904F06D0DFF8DCC0604505D14FF097
:1016D000010C20E04FF0000C1DE0DFF8CCC06045AD
:1016E00002D14FF0020C16E0DFF8C0C0604502D115
:1016F0004FF0030C0FE0DFF8B8C0604502D14FF0A7
:10170000040C08E0DFF8ACC0604502D14FF0050CD6
:1017100001E04FF0060C0CFA08FC4CEA050C029DA7
:10172000C5F808C0D9F80050CC46D1F804809543DC
:101730005FEAC82800D51543CCF80050DAF800500D
:10174000D446D1F8048095435FEA882800D5154334
:10175000CCF80050DBF80050DC46D1F8048095430B
:101760005FEA883800D51543CCF80050DEF8005009
:10177000F446D1F8048095435FEAC83800D5154394
:10178000CCF800505B1C0A6832FA03F57FF400AF16
:1017900005B0BDE8F08F00000804014000100240D1
:1017A000000001400004004800080048000C004808
:1017B00000100048001400480AB18161704781623E
:1017C0007047000001488068704700000C0000204E
:1017D00090F84120202A24D190F84020012A20D0DE
:1017E000012280F84020242280F8412002681368FA
:1017F00023F0010313600268136823F4805313601D
:10180000026813680B43136001680A6842F0010222
:101810000A60202180F84110002180F8401008461D
:1018200070470220704790F84120202A22D190F87A
:101830004020012A1ED0012280F84020242280F876
:1018400041200268136823F00103136002681368E3
:1018500023F4706343EA0121116001680A6842F0D1
:1018600001020A60202180F84110002180F8401018
:10187000084670470220704770B5040004D094F801
:101880004100002510B106E0012070BD84F84050F1
:10189000204600F04FF8242084F8410020680168B9
:1018A00021F0010101606068216820F0706008612A
:1018B0002068816821F400418160E0680128A06807
:1018C00030D040F4044021688860E0680228206835
:1018D00041682AD021F40061416020684168144ABF
:1018E000114341602068C16821F40041C160D4E91E
:1018F00004010843A16940EA01202168C860D4E9D5
:1019000007010843216808602068016841F001016F
:1019100001606564202084F84100256384F842500A
:10192000002070BD40F40040CDE741F40061D3E7F2
:101930000080000230B59BB00446142115A8FEF7C4
:10194000DFFD54216846FEF7DBFD17492068884219
:1019500027D18015002500900995684600F0CEF942
:1019600008B1FEF7B5FE114CE06C40F00400E064F5
:10197000E06C15A900F004001A904FF44070159027
:101980001220CDE916050820CDE918500848FFF7C8
:10199000EFFDA06D40F08040A065A06D00F080409C
:1019A0001A901BB030BD00000078004000100240CB
:1019B000000800480248816842681144816070470D
:1019C0000C00002010B50024032000F09BF80F202D
:1019D00000F008F808B1012401E000F047F82046C3
:1019E00010BD000030B505461B4887B0816D41F041
:1019F00010018165806D06A900F01000009001A81B
:101A000000F0EAFB00F008FC1449154AB0FBF1F1C4
:101A10001448491E0260416040F2E7320021C0E9EB
:101A20000321816001F011F9040012D10D4801F089
:101A30003FF904000DD1362000F036F8102D07D202
:101A400000222946362000F03DF80748056000E0F6
:101A5000012407B0204630BD0010024040420F0074
:101A6000001000401C0700200C0000200D4808B5A5
:101A7000016E41F001010166016E01F0010100916A
:101A8000816D41F080518165806D002200F08050B1
:101A900000900F21901E00F015F8BDE8084000F0FE
:101AA00025B9000000100240002809DB00F01F02E9
:101AB000012191404009800000F1E020C0F80011B0
:101AC00070470000F0B40E4B1B680C46C3F30223B2
:101AD000C3F10705042D00D90425191D072901D2DA
:101AE000002300E0DB1E012606FA05F1491E214015
:101AF00099409E40761E16403143F0BC02F06EBD08
:101B00000CED00E0064900F0070208684FF6FF03FD
:101B1000184040EA0220034A104308607047000062
:101B20000CED00E00000FA0501220168C0F8D022A7
:101B3000002280F8C82231F8540F40F001000880DC
:101B4000088840F0020008801046704770B5040015
:101B500004D094F89102002510B106E0012070BD78
:101B600084F89052204600F03FF8032084F8910258
:101B7000206802F02AFD002001260BE000EB800126
:101B800004EBC1014E740874CD740D624D62401CAB
:101B9000C0B28D6221798142F0D8002012E000BFEE
:101BA00000EB800104EBC10181F8515181F8500133
:101BB00081F85351C1F86051C1F86451401CC0B262
:101BC000C1F8685121798142EAD894E8070002F00F
:101BD000F3FC257384F89162A07A012802D1204693
:101BE000FFF7A2FF002070BD10B596B00446542147
:101BF0006846FEF785FC0C492068884212D14014E3
:101C0000009000200F90684600F078F808B1FEF7C9
:101C10005FFD0648816D41F400018165806D00F42F
:101C20000000159016B010BD005C0040001002408E
:101C30002B492C4B0A6832214A432B4940B1B0F55D
:101C4000007F086829D020F4C06040F480602CE058
:101C50000868C0F34120022804D051F8800F20F416
:101C6000807022E0D1F8800020F48070C1F88000FC
:101C7000086820F4C06040F400700860B2FBF3F024
:101C8000401C00E0401E4A69520501D50028F9D1E8
:101C9000486940050AD503207047C0F34120022857
:101CA00006D051F8800F40F4807008600020704723
:101CB000D1F8800040F48070C1F88000086820F4FA
:101CC000C06040F400700860B2FBF3F0401C00E01C
:101CD000401E4A695205DBD50028F9D1D8E700003B
:101CE0001800002040420F00007000400248816848
:101CF00041F4804181607047007000402DE9F84355
:101D0000044600680026BB4D00035ED5A86D002781
:101D1000C00008D4A86D40F08050A865A86D0127C8
:101D200000F080500090DFF8D092D9F8001041F414
:101D30008071C9F80010FFF745FD804606E000BF3E
:101D4000FFF740FDA0EB080002282BD8D9F80000CF
:101D5000C005F5D5D5F8900010F4407014D0216D71
:101D6000814211D0D5F89000D5F8901020F4407041
:101D700041F48031C5F89010D5F8901021F48031ED
:101D8000C5F89010C5F89000C00711D0FFF71AFDF4
:101D9000804641F2883907E0FFF714FDA0EB080107
:101DA000494501D903260BE0D5F890008007F3D50B
:101DB000D5F89000216D20F440700843C5F89000DC
:101DC0001FB1A86D20F08050A8652078C00707D00B
:101DD000D5F88800616820F003000843C5F8880042
:101DE0002078800707D5D5F88800A16820F00C007E
:101DF0000843C5F888002078400707D5D5F8880043
:101E0000E16820F030000843C5F88800207800071A
:101E100007D5D5F88800216920F0C0000843C5F82F
:101E200088002078C00607D5D5F88800616920F4BD
:101E300040700843C5F888002078800607D5D5F89B
:101E40008800A16920F440600843C5F88800207824
:101E5000400607D5D5F88800E16920F440500843D2
:101E6000C5F888002078000607D5D5F88800216AD3
:101E700020F440400843C5F888002088C00507D5F5
:101E8000D5F88800616A20F440300843C5F888001E
:101E90002068800307D5D5F89C00A16A20F00300D4
:101EA0000843C5F89C002088800507D5D5F8880030
:101EB000E16A20F440200843C5F8880020884005E6
:101EC0000FD5D5F88800216B20F440100843C5F8E1
:101ED0008800206BB0F5801F03D1E86840F48010C3
:101EE000E860208800050FD5D5F88800616B20F4E4
:101EF00040000843C5F88800606BB0F5800F03D13F
:101F0000E86840F48010E8602088C0040FD5D5F858
:101F10008800A16B20F040700843C5F88800A06BD2
:101F2000B0F1807F03D1E86840F48010E860208839
:101F30004FF0006180040ED5D5F88800E26B20F0E8
:101F400040601043C5F88800E06B884203D1E86820
:101F500040F48010E860208840040ED5D5F8880051
:101F6000226C20F040601043C5F88800206C884245
:101F700003D1E86840F48010E860208800040FD5A1
:101F8000D5F88800616C20F040500843C5F88800FF
:101F9000606CB0F1805F03D1E86840F48030E860A5
:101FA0002068C0030FD5D5F88800A16C20F0404010
:101FB0000843C5F88800A06CB0F1804F03D1E868F1
:101FC00040F48030E860206840030FD5D5F89C00CD
:101FD000E16C20F440100843C5F89C00E06CB0F5BB
:101FE000001F03D1E86840F48010E8603046BDE887
:101FF000F883000000100240007000402DE9F04717
:102000000E4605004FF0000725D0DFF8AC81D8F868
:10201000000000F00F00B0420CD2D8F8001021F000
:102020000F013143C8F80010D8F8000000F00F008D
:10203000B04210D12968614CC80741F2883A5AD0A1
:102040006868DFF87C91032808D0022820682DD02A
:10205000400500282CDB0120BDE8F08720688001C6
:10206000F9D5E06800F00302E068C0F30310401CFB
:10207000032A19D0534A00BFB2FBF0F0E268C2F362
:1020800006225043E268C2F34162521C5200B0FB88
:10209000F2F0484517D9A06810F0F00F0CD088076F
:1020A00011D5A86840B10EE0474AE5E78003D0E7C4
:1020B00000F0D6F8484506D9A06820F0F00040F0BE
:1020C0008000A0608027A068696820F003000843B2
:1020D000A060FFF777FB814606E000BFFFF772FBC9
:1020E000A0EB090151453AD8A068696800F00C00DE
:1020F000B0EB810FF2D12868810714D5400703D5D2
:10210000A06840F4E060A0602878000705D5A068CA
:1021100020F4605040F4E060A060A068A96820F05E
:10212000F000084304E0802F03D1A06820F0F00005
:10213000A060D8F80010404601F00F01B14216D956
:10214000016821F00F0131430160FFF73BFB0746B7
:1021500007E000BFFFF736FBC11B514501D9032043
:102160007AE7D8F8000000F00F00B042F2D12878EA
:10217000400705D5A068E96820F4E0600843A06046
:102180002878000706D5A068296920F4605040EA45
:10219000C100A06000F064F8A1680C4AC1F303110B
:1021A000515C01F01F01C8400949086009480068F6
:1021B000BDE8F047FFF716BC0020024000100240C7
:1021C00000B4C4040024F40000366E01B05E0008C0
:1021D000180000200C0000200F2202600C4A9368B7
:1021E00003F003034360936803F0F0038360936894
:1021F00003F4E063C36092684FF4E06303EAD20241
:1022000002610448006800F00F0008607047000099
:102210000010024000200240054806490068896815
:10222000054AC1F30221515C01F01F01C84070470B
:102230001800002000100240C05E00080548064952
:1022400000688968054AC1F3C221515C01F01F0191
:10225000C84070471800002000100240C05E00080F
:10226000184910B58868C0F381021748012A0BD0BD
:102270008A68164BC2F38102022A06D08A68C2F32A
:102280008102032A03D0002010BD184610BDCA6881
:1022900002F00304CA68C2F30312521C032C02D0DA
:1022A000B0FBF2F001E0B3FBF2F0CA68C968C2F318
:1022B00006225043C1F34161491C4900B0FBF1F0D3
:1022C00010BD0000001002400024F40000366E0132
:1022D0002DE9F84304007AD02078F84DC00747D0A4
:1022E000A868E96800F00C0001F003010C2802D096
:1022F000082817D001E0032914D06068B0F5803FAA
:1023000017D0B0F5A02F286817D020F480302860AF
:10231000286820F4802028606068E0B1FFF752FA56
:10232000064614E02868800322D560680028D2D0D1
:102330001EE0286840F48030EDE740F480202860FB
:10234000F7E700BFFFF73EFA801B642870D82868C3
:102350008003F7D50CE0FFF735FA064605E000BF2D
:10236000FFF730FA801B6428F0D828688003F7D480
:10237000207880074CD5A868E96800F00C0001F0CF
:1023800003010C2802D004280DD001E002290AD054
:10239000E068002828682BD040F480702860FFF7A0
:1023A00011FA064619E02868400502D5E0680028C1
:1023B00091D06868217C20F0FE4040EA01606860AE
:1023C000BF480068FFF70EFB002800D120E072E153
:1023D000FFF7F8F9801B0228B8D828684005F7D520
:1023E0006868217C20F0FE4040EA016068600FE0F0
:1023F00020F480702860FFF7E5F9064605E000BF8D
:10240000FFF7E0F9801B0228A0D828684005F7D420
:102410002078000729D560690028D5F8940013D0EA
:1024200040F00100C5F89400FFF7CCF9064606E03D
:1024300090E000BFFFF7C6F9801B022886D8D5F8C8
:1024400094008007F6D510E020F00100C5F8940054
:10245000FFF7B8F9064604E0FFF7B4F9801B02283D
:1024600078D8D5F894008007F6D42078400761D555
:10247000A86D0026C00008D4A86D40F08050A86563
:10248000A86D012600F0805000908E480168C905B3
:1024900011D40168804641F480710160FFF792F920
:1024A000074604E0FFF78EF9C01B022852D8D8F87F
:1024B0000000C005F6D5A068012815D00528D5F87C
:1024C000900016D020F00100C5F89000D5F89000DB
:1024D00020F00400C5F89000A06841F28838B8B137
:1024E000FFF770F907460EE0D5F8900040F00100C4
:1024F000F0E740F00400C5F89000F5E7FFF762F957
:10250000C11B414526D8D5F890008007F6D50CE0D0
:10251000FFF758F9074604E0FFF754F9C11B41459E
:1025200018D8D5F890008007F6D41EB1A86D20F019
:102530008050A8652078800629D5A0690028D5F8A4
:10254000980013D040F00100C5F89800FFF73AF961
:10255000064606E075E000BFFFF734F9801B02284D
:102560006FD8D5F898008007F6D510E020F001006C
:10257000C5F89800FFF726F9064604E0FFF722F9B0
:10258000801B02285DD8D5F898008007F6D4E06952
:10259000F0B3A968C1F3810103295DD0022828683E
:1025A00020F08070286003D0FFF70CF904464BE060
:1025B000FFF708F9064604E0FFF704F9801B02283C
:1025C0003FD828688001F7D4F4E908016FF00F02C2
:1025D00002EB01110843218A5204490802EB4151E0
:1025E000A26841EA02210843217D4FF07E4249085A
:1025F00002EB41610843217B40EAC160E968324A4D
:1026000011400843E860286840F08070286000E0CE
:102610005EE0E86840F08070E860FFF7D3F80446B9
:1026200005E000BFFFF7CEF8001B022809D8286894
:102630008001F7D54CE000BFFFF7C4F8001B02286B
:1026400002D90320BDE8F88328688001F4D4E86843
:102650001E490840E8603BE00128F3D0E868226AA0
:1026600000F00301914226D1616A00F0F0020901F5
:10267000103991421FD1A26A00F4FE41B1EB022F42
:1026800019D194F82C2000F07841B1EBC26F12D12F
:10269000218E00F4C00249084905A1F500119142BC
:1026A00009D194F8341000F0C06049084906A1F13E
:1026B000007181420CD00120C4E7000000100240EC
:1026C0000C000020007000400C809F01FCFFEEFE1B
:1026D0000020B7E790F85D00704770B5040009D09E
:1026E000606A002540B125616561A56294F85D00CE
:1026F00040B10CE0012070BD6068B0F5827FF4D07D
:10270000E561F2E784F85C50204600F05BF80220B7
:1027100084F85D002068016821F040010160E168F3
:102720004FF4E062914201D9002001E04FF4805063
:10273000B1F5706F02D0914200D0A562A1882289C4
:1027400001F4827102F404421143227C02F002027D
:102750001143227D02F001021143228B02F4007228
:102760001143227F02F03802114394F8202002F036
:1027700080021143228D02F400521143226811603D
:10278000A169042202EA114194F8242000F4805047
:1027900002F01002114394F8342002F008021143B1
:1027A000A28902F4706211430143206841602068ED
:1027B000C16921F40061C1612566012084F85D00D2
:1027C000002070BD10B586B0044614216846FDF7A0
:1027D00097FE2368204C002120480222A34219D1F1
:1027E000036E43F480530366036E03F48053059332
:1027F000C36C43F00203C364C06C00F00200059098
:1028000038200090CDE901210520CDE9031069466B
:1028100013481CE0134CA3421BD1836D43F40043C7
:102820008365836D03F400430593C36C43F0040395
:10283000C364C06C00F0040005904FF4E0500090B9
:10284000CDE901210620CDE9031069460648FEF7CF
:102850008FFE06B010BD00000030014000100240A5
:1028600000040048003C0040000800482DE9FF5FDC
:10287000044690F85C0000260E9F1D4693464FF0DC
:10288000010901280FD04FF0010A84F85CA0FEF77F
:1028900099FF804694F85D00616801280DD0B1F57C
:1028A000827F08D103E0022004B0BDE8F09FA16858
:1028B00009B9042801D0022609E10198002876D040
:1028C000BBF1000FFBD0002DF9D094F85D00042877
:1028D00002D0052084F85D0000202066C4F840B0D6
:1028E000A4F84650A4F844500199A163E587A58750
:1028F000E0642065E0684FF4E061884201D8012D72
:1029000004D92068426822F4805203E020684268BB
:1029100042F48052426020680268520603D4026882
:1029200042F040020260E0688842606848D908B11D
:10293000012D3DD1A06B21680088C860A06B801C70
:10294000A063E08F401EE08732E02068816889073D
:102950000FD5E18F69B1B9F1010F0AD1A16B0988D7
:10296000C160A06B801CA063E08F401EE0874FF029
:10297000000920688168C9070FD0B4F8461061B11A
:10298000C068216C0880206C801C2064B4F846006C
:10299000401EA4F846004FF00109FEF713FFA0EB1C
:1029A0000800B84204D3781C02D003268DE08AE0E8
:1029B000E08F0028C9D1B4F846000028C5D177E0DF
:1029C00008B1012D6DD1E08F0128A06B08D92168D5
:1029D0000088C860A06B801CA063E08F801E07E0A9
:1029E000216800780873A06B401CA063E08F401E34
:1029F000E08756E02068816889071AD5E18FC1B168
:102A0000B9F1010F15D1E18F0129A16B07D909880F
:102A1000C160A06B801CA063E08F801E06E0097877
:102A20000173A06B401CA063E08F401EE0874FF055
:102A3000000920688168C90728D0B4F8461029B376
:102A4000B4F84610012914D9C068216C0880206CA4
:102A5000801C2064B4F84600801EA4F84600B4F838
:102A60004600012810D82068416841F48051416037
:102A70000AE0007B216C0870206C401C2064B4F8D4
:102A80004600401EA4F846004FF00109FEF79AFEEA
:102A9000A0EB0800B84202D3781C02D085E7002FD3
:102AA00083D0E08F0028A5D1B4F846000028A1D13A
:102AB00042463946204600F06BFF10B10126202027
:102AC0002066206E08B1012601E084F85DA0002098
:102AD00084F85C003046E7E67047704770470000B6
:102AE00030B590F83C20012A45D0012280F83C20E6
:102AF000CA688B6822F440721A434B6822F48062E1
:102B00001A430B6822F400621A430B6922F48052C4
:102B10001A434B6922F400521A430B6B22F4804291
:102B20001A430B8B22F4702242EA0342CB6922F053
:102B300080521A43114D03680024AB4205D0104D5A
:102B4000AB4202D00F4DAB4210D10D8D22F470027A
:102B500042EA05520D6A22F080722A434D6A22F041
:102B600000722A43C96A22F000520A435A6480F86C
:102B70003C40002030BD022030BD0000002C014050
:102B8000003401400050014070477047704700001A
:102B9000F0B590F83C20012A43D0012580F83C5044
:102BA000022280F83D2003685A689C681E4E1F4F21
:102BB000DFF87CC0B34203D0BB4201D0634504D1EF
:102BC00022F4700E4A6842EA0E02DFF868E002EA78
:102BD0000E02D1F800E04EEA020EC3F804E00268EB
:102BE000B24212D0B2F1804F0FD0134B9A420CD0A8
:102BF000124B9A4209D0124B9A4206D0BA4204D0E4
:102C0000104B9A4201D0624504D1896824F08003B8
:102C10001943916080F83D50002180F83C1008462F
:102C2000F0BD0220F0BD0000002C01400034014046
:102C3000005001408FFFFFFD0004004000080040ED
:102C4000000C004000400140704710B5040003D064
:102C500094F83D0010B107E0012010BD002084F879
:102C60003C00204600F022F8022084F83D00211D9F
:102C7000206800F0D3FF012084F8480084F83E006B
:102C800084F83F0084F8400084F8410084F8420052
:102C900084F8430084F8440084F8450084F8460032
:102CA00084F8470084F83D00002010BD7047000004
:102CB00090F83D10012901D001207047022180F8D1
:102CC0003D100168CA6842F00102CA6000681349F9
:102CD000884214D0B0F1804F11D0114988420ED0F3
:102CE000104988420BD01049884208D00F498842C9
:102CF00005D00F49884202D00E49884207D1816829
:102D00000D4A1140062906D0B1F5803F03D0016875
:102D100041F001010160002070470000002C0140DB
:102D20000004004000080040000C00400034014056
:102D300000400140005001400700010070472DE9AC
:102D4000F04104460068C66805694FF00007A9070E
:102D500013D5B10711D5F91E016101202077206834
:102D600080698007204602D0FFF7E8FF04E000F00A
:102D700001F9204600F0D6F92777680716D57007C5
:102D800014D521686FF004000861022020772068C4
:102D9000806910F4407F204602D0FFF7CFFF04E0A7
:102DA00000F0E8F8204600F0BDF92777280715D590
:102DB000300713D521686FF00800086104202077E0
:102DC0002068C0698007204602D0FFF7B7FF04E003
:102DD00000F0D0F8204600F0A5F92777E80616D5D0
:102DE000F00614D521686FF01000086108202077E4
:102DF0002068C06910F4407F204602D0FFF79EFF94
:102E000004E000F0B7F8204600F08CF92777E807D7
:102E100008D0F00706D021686FF001000861204655
:102E200000F082F9280601D4A80408D5300606D59A
:102E300021686FF4025008612046FFF74EFEE80556
:102E400008D5300606D521686FF4807008612046E9
:102E5000FFF742FE680608D5700606D521686FF0B8
:102E600040000861204600F069F9A80608D5B006C0
:102E700006D521686FF0200008612046FFF72EFE7E
:102E8000E80208D5F00206D521686FF480100861C9
:102E90002046FFF77AFEA80208D5B00206D52168C1
:102EA0006FF4001008612046FFF76EFE680208D537
:102EB000700206D521686FF4800008612046FFF794
:102EC00065FE28020AD5300208D521686FF400009B
:102ED00008612046BDE8F041FFF7B6BEBDE8F081CD
:102EE000F0B587B0044614216846FDF709FB1E497A
:102EF0002068884236D11D48C16C41F00201C1648E
:102F0000C16C01F002010591C16C41F00101C16485
:102F1000C06C022500F0010005904FF4C040009005
:102F20000024CDE901540626114FCDE90346694638
:102F30003846FEF71DFBA8030090CDE9015404209C
:102F4000CDE9034069463846FEF712FB4FF4E060D6
:102F50000090CDE90154CDE9034669464FF0904019
:102F6000FEF706FB07B0F0BD002C01400010024048
:102F700000040048704770B5044690F83C000026F5
:102F80000D4601280BD0012084F83C000C2A4AD0C1
:102F900007DC82B1042A20D0082A06D131E00220C1
:102FA00070BD102A53D0142A63D00126002084F863
:102FB0003C00304670BD206800F0A2FE20688169A8
:102FC00041F0080181612068816921F0040181617B
:102FD000206881692A69114311E0206800F0E6FE4B
:102FE0002068816941F4006181612068816921F470
:102FF00080618161206881692A6941EA02218161D9
:10300000D4E7206800F022FF2068C16941F0080180
:10301000C1612068C16921F00401C1612068C169F2
:103020002A69114311E0206800F060FF2068C1693F
:1030300041F40061C1612068C16921F48061C1610E
:103040002068C1692A6941EA0221C161AEE72068AE
:1030500000F09CFF2068016D41F0080101652068C7
:10306000016D21F0040101652068016D2A69114399
:1030700011E0206800F0C6FF2068016D41F4006196
:1030800001652068016D21F4806101652068016D92
:103090002A6941EA0221016588E710B5040003D0DE
:1030A00094F83D0010B107E0012010BD002084F825
:1030B0003C00204600F022F8022084F83D00211D4B
:1030C000206800F0ABFD012084F8480084F83E0041
:1030D00084F83F0084F8400084F8410084F84200FE
:1030E00084F8430084F8440084F8450084F84600DE
:1030F00084F8470084F83D00002010BD08B5006842
:103100000649884208D10648016E41F40061016613
:10311000006E00F40060009008BD0000002C01402B
:10312000001002407047000000680349884201D146
:10313000FEF740BC7047000000100040704790F858
:103140008410012918D0012180F884102421C0F8AE
:10315000881001680A680B6823F001030B6022F0F5
:10316000005100224266036819602021C0F88810CF
:1031700080F88420104670470220704770B50446DE
:1031800090F8840001281DD0012084F884002420B8
:10319000C4F8880020680568026822F00102026015
:1031A0002068826822F060620A438260204600F054
:1031B00067FF206805602020C4F88800002084F89C
:1031C000840070BD022070BD70B5044690F8840084
:1031D00001281DD0012084F884002420C4F8880030
:1031E00020680568026822F0010202602068826897
:1031F00022F060420A438260204600F041FF2068CE
:1032000005602020C4F88800002084F8840070BD88
:10321000022070BD10B5040003D0D4F8880010B1AE
:1032200007E0012010BD002084F88400204600F053
:1032300027F82420C4F888002068016821F00101E3
:103240000160A06A10B1204600F03CFF204601F06A
:103250001DF80128E6D02068416821F490414160C2
:103260002068816821F02A0181602068016841F0AE
:10327000010101602046BDE8104000F087BF00005A
:1032800010B59CB00446142115A8FDF739F9542156
:103290006846FDF735F916492068884226D1012095
:1032A0000024CDE900046846FEF728FD08B1FDF7CB
:1032B0000FFA1048016E41F480410166016E01F47D
:1032C00080411A91C16C41F00201C164C06C15A922
:1032D00000F002001A90C02015900220CDE91604DB
:1032E0000720CDE918400448FEF742F91CB010BD94
:1032F000003801400010024000040048FEE700EBE7
:103300008100006E00F0F84070478068C0F3C00094
:1033100070478068C0F3800070478068C0F3800009
:103320007047042303EAD15310B518444369C1F32D
:10333000045107248C40A3438A401343436110BDCA
:1033400000EB8100016E21F00041114301667047DE
:1033500030B58BB0002408940994202168460A9463
:10336000FDF7CEF828484FF0A041042501604FF446
:103370004031C0E9011485610121C460C0E9044104
:10338000047744770321016280F82440C462046317
:1033900080F83840C46380F84040FDF781FC08B1F4
:1033A000FDF796F908A918480894FDF793F908B1B4
:1033B000FDF78EF9154800900620CDE901057F2024
:1033C0000594CDE9030569460F48FDF733FA08B1C6
:1033D000FDF77EF90E4800900C20019069460A48DE
:1033E000FDF728FA08B1FDF773F90A48009012209A
:1033F000019069460448FDF71DFA002801D0FDF749
:1034000067F90BB030BD00009C0000201000C01018
:10341000040060088000501D30B589B02021684646
:10342000FDF76EF82A482949002401604FF4403125
:10343000C0E90114042585610121C460C0E904418B
:1034400004774477056280F82440C462046380F8FE
:103450003840C46380F84040FDF722FC08B1FDF716
:1034600037F91C4800900620CDE901057F2005941E
:10347000CDE9030569461648FDF7DCF908B1FDF70B
:1034800027F9154800900C20019069461048FDF777
:10349000D1F908B1FDF71CF91048009012200190F5
:1034A00069460B48FDF7C6F908B1FDF711F90C485C
:1034B00000901820019069460548FDF7BBF90028E7
:1034C00001D0FDF705F909B030BD00000001005042
:1034D000080100200800900C1000C0100020903659
:1034E000000052470C4810B50A49016000217022C3
:1034F000C0E901124FF48032C0E9032141618161CA
:10350000FDF762FD002803D0BDE81040FDF7E0B8EC
:1035100010BD000000020140740100200C4810B5ED
:103520000A490160891541607021816000214FF4D2
:103530008032C0E9032141618161FDF745FD00282A
:1035400003D0BDE81040FDF7C3B810BD0402014030
:10355000980100200C4810B50A49016089154160A6
:103560007021816000214FF48032C0E90321416164
:103570008161FDF729FD002803D0BDE81040FDF76B
:10358000A7B810BD08020140BC010020114810B5C9
:103590000F490160002141608160C1600174417484
:1035A00081741022426101220223C0E90623C0E98E
:1035B00008328262C262C0E90C218163C163FDF7F7
:1035C0007DFE002803D0BDE81040FDF781B810BD96
:1035D00000640040E001002010B5044A00210448C6
:1035E00001F090F80349086010BD0000645E000817
:1035F000713B0008040000202DE9F04786B014213B
:103600006846FCF77DFF4148C16C41F02001C16470
:10361000C16C01F020010591C16C41F00401C1644D
:10362000C16C01F004010591C16C41F00101C1645C
:10363000C16C01F001010591C16C41F00201C1644E
:10364000C16C01F002010591C16C41F00801C16437
:10365000C06C2F4F00F008004FF4C05505900022B9
:1036600029463846FEF7A8F80122D6034FF09048C5
:1036700031464046FEF7A0F8DFF898A00122042169
:103680005046FEF799F800243020CDE90004DFF819
:103690008890694648460294FDF76AFF0320CDE909
:1036A0000004694638460294FDF762FF0095012543
:1036B000CDE90154694638460394FDF759FF80204F
:1036C00000904FF40410CDE9010469464846FDF727
:1036D0004FFF0096CDE90154694640460394FDF73B
:1036E00047FF04200090CDE90154694650460394F9
:1036F000FDF73EFF002205211720FEF7E3F9172012
:10370000FEF7D2F906B0BDE8F087000000100240D5
:1037100000040048000C004800080048134810B599
:10372000114901601249416000210122C0E90212E1
:10373000016141618161C1610162FEF79DF808B1DB
:10374000FCF7C6FF00210948FEF742F808B1FCF774
:10375000BFFF00210548FEF766F8002803D0BDE84A
:103760001040FCF7B5BF10BD0078004044020020B7
:10377000FBA7A030124810B5104901604FF48271C8
:10378000416000214FF47062C0E902120122C0E9D9
:103790000412520282613022C0E9072107224162ED
:1037A000C0E90A1201634163FEF797FF002803D0C6
:1037B000BDE81040FCF78CBF10BD00000030014098
:1037C00098020020124810B5104901604FF4827130
:1037D000416000214FF44072C0E902124FF40072C0
:1037E0000161C0E905123022C0E9072107224162C8
:1037F000C0E90A12016308214163FEF76EFF002849
:1038000003D0BDE81040FCF763BF10BD003C004092
:10381000FC02002010B598B00024149415941C21CB
:103820000DA81694FCF76CFE34216846FCF768FE80
:103830002D482C49C0E900142021816041F29901F2
:10384000C0E903148021C0E90541FFF726FC08B157
:10385000FCF73EFF1494159414A923481694FFF71F
:1038600097F908B1FCF734FF6020CDE90D040F94FF
:1038700010941194129400220DA91B481394FFF781
:103880007AFB08B1FCF724FF04220DA91648FFF7C4
:1038900072FB08B1FCF71CFF08220DA91248FFF7C4
:1038A0006AFB08B1FCF714FF5520CDE902400094F3
:1038B0004FF40050CDE904400003CDE908400194E5
:1038C000069407940A940B94694607480C94FFF7F2
:1038D00007F908B1FCF7FCFE0348FFF701FB18B03D
:1038E00010BD0000002C014060030020184810B5F6
:1038F000164901604FF4E1314160002181600C22E2
:10390000C160C0E904128161C161016241628162EA
:10391000FFF780FC08B1FCF7DBFE00210C48FFF745
:1039200053FC08B1FCF7D4FE00210948FFF726FC40
:1039300008B1FCF7CDFE0648FFF701FC002803D0D4
:10394000BDE81040FCF7C4BE10BD000000380140C7
:10395000AC0300200C4810B50A4901600821017130
:1039600002214171C1710021017241728172C172E3
:10397000FEF7ECF8002803D0BDE81040FCF7A8BE25
:1039800010BD0000005C004040040020FEE7FEE7A0
:10399000F8B515460E460B460092044600224FF439
:1039A000C05100F019F888B9334600228021204622
:1039B000009500F081F848B9334600224FF4C06109
:1039C0002046009500F008F8002804D0206E40F052
:1039D000200020660320F8BD2DE9FE4F4FF0000ABD
:1039E000984617460E4604460C9D8DF804A0FDF738
:1039F000E9FE411BA8EB0105FDF7E4FE81462068C6
:103A00004FF4C06B0C3002902A480068C0EBC00035
:103A100000EB8000000D6843009043E05E4506D156
:103A20002FB9029800788DF804009DF80400B8F1D1
:103A3000FF3F37D0FDF7C6FEA0EB0900A84203D236
:103A400015B1009858B32BE02068416821F0E001DF
:103A500041606068B0F5827F0BD1A068B0F5004F7F
:103A600002D0B0F5806F04D12068016821F04001D8
:103A70000160A06AB0F5005F09D12068016821F4F7
:103A8000005101602068016841F40051016001208B
:103A900084F85D0084F85CA00320BDE8FE8F00255B
:103AA000401E0090206880683040B842B6D10020A7
:103AB000F3E70000180000202DE9F8431E46914668
:103AC00088460446089DFDF77DFE401B351AFDF72C
:103AD00079FE074625480068C0F3CB30684338E0DC
:103AE000701C37D0FDF76EFEC01BA84203D215B183
:103AF000009860B32CE02068416821F0E00141604B
:103B00006068B0F5827F0BD1A068B0F5004F02D09D
:103B1000B0F5806F04D12068016821F04001016098
:103B2000A06AB0F5005F09D12068016821F4005156
:103B300001602068016841F400510160012084F8AF
:103B40005D00002084F85C000320BDE8F8830025B8
:103B5000401E00902068816838EA010004D00021EE
:103B60004945BDD10020F0E70121F9E71800002008
:103B7000012000F08BFDFBE710B54FF0E02000695D
:103B800001F0B4FF012803D0BDE8104001F0E2BC11
:103B900010BD10B594B038216846FCF7B1FC142173
:103BA0000EA8FCF7ADFC0020FEF742F821200090A3
:103BB0004FF4803001900120069002200324CDE9CB
:103BC000070406215522CDE90912CDE90B010D901C
:103BD0006846FEF77DFB08B172B6FEE70F20CDE91F
:103BE0000E04002010901190129004210EA8FEF7F0
:103BF00005FA002801D072B6FEE714B010BD00002F
:103C00000248016841F470010160704788ED00E0EE
:103C10000148FFF794B800001C0700202DE9F04F81
:103C200002682E4B2E4E2F4FDFF8BCC02F4C304D6C
:103C30004FF0804B98420BD0584509D0B04207D086
:103C4000B84205D0604503D0A04201D0A84204D1BB
:103C500022F070084A6842EA0802DFF89880DFF82C
:103C60009890DFF898A0984211D058450FD0B042F4
:103C70000DD0B8420BD0604509D0A04207D04045D6
:103C800005D0484503D0504501D0A84203D122F4C5
:103C90004076CA6832434E6922F0800232430260A5
:103CA0008A68C2620A688262984209D0A04207D03C
:103CB000404505D0484503D0504501D0A84201D128
:103CC00009690163012141610169C90703D00169E3
:103CD00021F001010161BDE8F08F0000002C0140DE
:103CE0000004004000080040000C00400034014087
:103CF00000500140004001400044014000480140A4
:103D00002DE9F047056A026A22F001020262436867
:103D100082691F4C25F0020522400C6822F0030244
:103D200014438A681C4E2A431A4D1C4FDFF870C09A
:103D3000DFF87090DFF870A0A84209D0B04207D039
:103D4000B84205D0604503D0484501D0504506D162
:103D500022F00808CA6842EA080222F00402A842D7
:103D600009D0B04207D0B84205D0604503D04845DD
:103D700001D0504505D14D6923F440731D438B6933
:103D80002B4343608461496841630262BDE8F08768
:103D90008FFFFEFF002C0140003401400040014035
:103DA000004401400048014000500140F0B5056A60
:103DB000026A22F010020262426883691C4C1E4EA5
:103DC00023400C6823F4407343EA042425F02003C5
:103DD0008D681A4F43EA0513164DA84203D0B0422E
:103DE00001D0B84207D1D1F80CC023F0800343EAD8
:103DF0000C1323F04003A8420CD0B0420AD0104D5F
:103E0000A84207D00F4DA84204D00F4DA84201D0C0
:103E1000B84207D14D6922F4406242EA85028D69B9
:103E200042EA850242608461496881630362F0BDB1
:103E3000FF8FFFFE002C0140003401400050014084
:103E4000004001400044014000480140F0B5056ACF
:103E5000026A22F4807202624368C2691C4C1E4EE0
:103E600022400C6822F00302144325F400728D688E
:103E70001A4F42EA0522174DA84203D0B04201D0A2
:103E8000B84207D1D1F80CC022F4006242EA0C22F9
:103E900022F48062A8420CD0B0420AD0104DA84251
:103EA00007D0104DA84204D00F4DA84201D0B8420F
:103EB00007D14D6923F4405343EA05138D6943EA62
:103EC00005134360C4614968C1630262F0BD00002C
:103ED0008FFFFEFF002C01400034014000500140E4
:103EE000004001400044014000480140F0B5056A2F
:103EF000026A22F4805202624268C3691C4C1E4E60
:103F000023400C6823F4407343EA042425F400534F
:103F10008D681A4F43EA0533164DA84203D0B042CC
:103F200001D0B84207D1D1F80CC023F4004343EAD2
:103F30000C3323F48043A8420CD0B0420AD0104D79
:103F4000A84207D00F4DA84204D00F4DA84201D07F
:103F5000B84207D14D6922F4404242EA85128D6988
:103F600042EA85124260C461496801640362F0BD9F
:103F7000FF8FFFFE002C0140003401400050014043
:103F800000400140004401400048014030B5056A4E
:103F9000026A22F4803202624268036D124C2340AE
:103FA0000C681C4325F400330D8943EA05430F4D8B
:103FB000A8420ED00E4DA8420BD00E4DA84208D0FC
:103FC0000D4DA84205D00D4DA84202D00C4DA8427F
:103FD00004D14D6922F4803242EA05224260046530
:103FE00049688164036230BD8FFFFEFF002C0140F1
:103FF00000340140004001400044014000480140BD
:104000000050014030B5046A026A22F48012026254
:104010004268036D134D24F400142B400D6843EAED
:1040200005230D8944EA05540F4DA8420ED00F4DCB
:10403000A8420BD00E4DA84208D00E4DA84205D084
:104040000D4DA84202D00D4DA84204D14D6922F475
:10405000802242EA8522426003654968C1640462A5
:1040600030BD0000FF8FFFFE002C014000340140F6
:104070000040014000440140004801400050014020
:1040800030B5416EB9B1026891689268C1F342617E
:104090000B4B520F9C5CE50003F10804A25CB5FBDE
:1040A000F2F2A0F86A205A5C615CD200B2FBF1F136
:1040B000A0F8681030BD0121A0F86A10F8E70000F0
:1040C000A05E000890F82810090706D501684A6824
:1040D000836B22F400421A434A6090F82810C90703
:1040E00006D001684A68C36A22F400321A434A6063
:1040F00090F82810890706D501684A68036B22F4F6
:1041000080321A434A6090F82810490706D50168A2
:104110004A68436B22F480221A434A6090F82810C0
:10412000C90606D501688A68C36B22F480521A4317
:104130008A6090F82810890606D501688A68036CA1
:1041400022F400521A438A6090F82810490611D5CB
:1041500001684A68436C22F480121A434A60416C39
:10416000B1F5801F06D101684A68836C22F4C00251
:104170001A434A6090F82810090606D501684A6873
:10418000C06C22F4002202434A6070472DE9F843D4
:1041900000260446C0F89060FDF714FB80462068B6
:1041A00000684FF0200500076FF07E4713D54346A7
:1041B000002229042046009700F0B4F958B1216884
:1041C00051E8000F20F0800041E80002002AF6D1FB
:1041D000C4F8885021E020680068400722D5434693
:1041E00000224FF480012046009700F09BF9C8B1EF
:1041F000216851E8000F20F4907041E80002002A85
:10420000F6D12068083050E8001F21F0010140E895
:104210000012002AF5D1C4F88C5084F88460032081
:10422000BDE8F883C4F88850C4F88C5044F86C6F2B
:10423000666026760020F3E710B5026852E8001F9A
:1042400021F4907142E80013002BF6D10E4B026866
:10425000083252E8001F194042E80014002CF6D141
:10426000C16E012908D1016851E8002F22F0100227
:1042700041E80023002BF6D12021C0F88C1000214A
:10428000C166416710BD0000FEFFFFEF2DE9F04160
:104290000446016880682269E36910436269002569
:1042A0001A431043DFF84CC20A68934B1A4002438A
:1042B0000A6020684168E26821F44051114341607E
:1042C0002168A069614501D0226A10438A688B4B3E
:1042D0001A4002438A602068C16A626A21F00F01B5
:1042E0001143C1628649236886488B420DD1D0F8BC
:1042F000880010F0030006D0012867D0022854D0AF
:10430000032851D164E001204FE07F498B420BD15B
:10431000D0F8880010F00C0047D0042845D00828B9
:1043200052D00C2840D153E078498B420BD1D0F8C1
:10433000880010F0300038D0102847D0202843D013
:10434000302831D144E072498B420BD1D0F888003B
:1043500010F0C00029D0402838D0802834D0C028A0
:1043600022D135E06B498B420ED1D0F8880010F491
:1043700040701AD0B0F5807F28D0B0F5007F23D0F0
:10438000B0F5407F10D123E063450DD1D0F888000F
:1043900010F4406009D0B0F5806F17D0B0F5006F11
:1043A00012D0B0F5406F13D010205B4A5B4F00264F
:1043B0004FF40041634539D160B102280DD0042883
:1043C0000DD0082831D10EE00220EEE70420ECE702
:1043D0000820EAE7FDF720FF03E0114603E0FDF7C0
:1043E0003FFF01007BD0606A37F810206768B1FB9F
:1043F000F2F007EB4703834269D8B0EB073F66D87A
:10440000002308461946FBF7B7FF090241EA10618D
:1044100002027808101871413A460023FBF7ACFFFE
:104420003F4AA0F54071914257D950E0E3694FF6F9
:10443000EF788B422BD1092849D2DFE800F005083C
:104440000D48254848480E00FDF7E6FE01E0FDF75F
:10445000F5FE010001D142E01146606A37F8100014
:10446000B1FBF0F04100606801EB5001B1FBF0F1ED
:10447000A1F1100040452AD84FF6F07201EA02007F
:10448000C1F34201084328E0FDF7EAFEE1E709280D
:104490001DD2DFE800F005080D1C1E1C1C1C0E00C0
:1044A000FDF7BAFE01E0FDF7C9FE010001D116E0FB
:1044B0001146606A37F81000B1FBF0F1606801EB5B
:1044C0005001B1FBF0F0A0F11001414504D90125E4
:1044D00005E0FDF7C5FEE8E780B22168C86001206D
:1044E000A4F86A0024F8680F2846E6602661BDE853
:1044F000F081000000800040F369FFCFFFF4FF115E
:1045000000380140001002400044004000480040D4
:10451000004C0040005000400024F400885E000879
:10452000FFFC0F002DE9F047994617460D4604465B
:104530004FF00008089E33E0701C31D0FDF742F9BF
:10454000A0EB0900B04218D8BEB120680168490745
:1045500026D5802D24D0402D22D0C169C94309071A
:104560000DD4082505622046FFF766FEC4F890507A
:1045700084F884800120BDE8F0870320FBE7C06950
:10458000C04300050CD421684FF400600862204647
:10459000FFF752FE2020C4F8900084F88480ECE7F6
:1045A0002068C06935EA000004D00020B842C3D0BA
:1045B0000020E0E70120F9E7012120F8401F002159
:1045C0000180818001820846704730F8401F4BF619
:1045D00080729143018000207047FEE70907090EB1
:1045E000002804DB00F1E02080F80014704700F0A0
:1045F0000F0000F1E02080F8141D7047FDF7E2F98C
:10460000FFF7C7FAFEF7F8FFFFF7B4F8FFF702F974
:10461000FFF784F8FFF7D6F8FFF768F9FEF7FCFE1E
:10462000FEF796FEFEF7B2FFFFF794F9FEF75AFF8A
:10463000FEF774FFFEF78EFF124C01221103204695
:10464000FDF7BAF800224FF400612046FDF7B4F8F8
:104650000A20FCF721FE0C490020FCF709F8012094
:10466000FCF71AFE08490020891CFCF701F801201C
:10467000FCF712FE00F018F8FEF7AEFF00F026F887
:10468000FEE70000000400480000002010B5EFF332
:10469000058111B16FF0050403E0002408B100F0BA
:1046A000F9FD204610BD0000EFF3058010B16FF05A
:1046B000050070470448016811B14FF0FF307047A2
:1046C00001210160002070476C00002010B5EFF35D
:1046D000058010B16FF0050010BD08480168012980
:1046E00002D04FF0FF3010BD054A002182F8141DA2
:1046F0000221016000F036FE002010BD6C00002099
:104700000BE000E02DE9FF414FEA01034FF0000507
:10471000EFF30581039549BB40B38027182100249E
:104720004AB3166806B1344696691EB13146761E04
:10473000382E02D21679F60703D0002004B0BDE867
:10474000F081566906B1B708D2F808C0BCF1000F75
:104750000DD0D5685C2D18D312693AB136B18DE809
:1047600006103A46214601F096F903900DE0D6680E
:104770005EB912694AB903AACDE90012BAB221465C
:1047800001F05CF9012800D003950398D6E70000FA
:104790002DE9F041134C0F460546E6682068001DE0
:1047A00000F044FC681C07D137B12168BDE8F04136
:1047B0000D48091D00F08ABC20683544B5424560AB
:1047C000216805D2A06BBDE8F041091D00F066BC70
:1047D000606B091D00F062FCA06A854200D2A562F0
:1047E000BDE8F0811C000020580C00202DE9F041AC
:1047F000054600F077FC2D4CA068401CA0602068A6
:104800002B4F10B1606930B32BE02560A068012800
:1048100027D1002606EB860007EB800000F030FC75
:10482000761C382EF6D3234800F02AFC2148143099
:1048300000F026FC1F48283000F022FC1D483C30C8
:1048400000F01EFC1B48503000F01AFC1948606351
:104850001430A06305E02068E96AC06A884200D885
:104860002560606A401C60626864E86A2169884269
:1048700000D9206100EB800007EB8000291D00F0CB
:1048800025FC00F04FFC606900280CD02068E96A24
:10489000C06A884207D208494FF080500860BFF3D1
:1048A0004F8FBFF36F8FBDE8F08100001C00002028
:1048B000A8070020080C002004ED00E038B500F047
:1048C00011FC104C2068C8B90F4800F0D9FB0E4805
:1048D000143000F0D5FB0C48E060143020610A4B26
:1048E0000020F03B009003F1500210210A2000F05C
:1048F00047FE206010B105A100F096FCBDE83840ED
:1049000000F010BC580000205C0D0020546D725166
:104910000000000030B4026C0B46002A0BD0C168C6
:104920001144C1608468A14201D30168C16030BCF8
:104930001846FBF798BD30BC70472DE9F041856BF8
:10494000174604460026026C82B1C7B1E068FBF747
:104950008AFDE168206C091AE1602268914202D266
:10496000A168081AE060022F16D017E02068A8B9E5
:10497000A06801F033F906460020A0600EE06068F0
:10498000FBF771FD216C606808446060A168884293
:1049900004D32068606001E005B16D1E6D1CA56345
:1049A0003046BDE8F08110B5044690F8590058B182
:1049B00001280CD002280FD0502080F31188BFF3BB
:1049C0004F8FBFF36F8FFEE7206B00F0BFFB2046D9
:1049D000BDE8104000F0BABB10BD000010484FF415
:1049E0004061420706D0C01D0D4920F00700411A62
:1049F000C1F540610B4A00230144C2E900030839B4
:104A0000183A21F0070111604B600B600B1AC0E9E6
:104A1000001393604FF000405360506170470000F6
:104A20003C14002088000020144E154CA6F29C4730
:104A30004FF08058DFF84C9012E000BF00F052FBBE
:104A4000F068C568281D00F0F1FAA068401EA0605B
:104A50006068401E606000F065FB2846FFF7A3FF1A
:104A600060680028EAD138680128F9D9C9F80080BF
:104A7000BFF34F8FBFF36F8FF2E70000440C0020AD
:104A80001C00002004ED00E070B51D46049C51B1EF
:104A9000C4F80020C4E90F010121204600F0A4FD64
:104AA00084F84C5070BD2460F4E700002DE9F05FFD
:104AB0008846DDE90B941546834691009A460A9E86
:104AC000A522206BFBF714FD6FF00301206B01EBB7
:104AD0008501084420F00707780707D0502080F3AD
:104AE0001188BFF34F8FBFF36F8FFEE70025B8F13A
:104AF000000F0FD05FF00000221818F8001082F8A5
:104B0000341018F8001011B1401C1028F4D384F8A8
:104B1000435001E084F83450382E00D33726E66243
:104B2000C4E91365201D00F0B6FA04F1180000F086
:104B3000B2FA2461C6F138006462A061656584F848
:104B4000585052465946384600F05AFA2060B9F19A
:104B5000000F01D0C9F80040BDE8F09F30B5114901
:104B600000E011460A688242FBD34B685C1884421D
:104B700003D1406818444860084643681C189442B2
:104B800009D1084C183C2468A24209D052681A4442
:104B900042600A6812680260814200D0086030BD3D
:104BA0000460F9E78800002070B5002441600B4DD7
:104BB0000061914206D8D11A8269914206D2011D44
:104BC000286907E09A4203D2994201D3012403E005
:104BD000011DE86800F062FA204670BD5800002010
:104BE00010B5044600F07EFAA06B28B15FF0000417
:104BF00000F098FA204610BD0124F9E730B589B0DD
:104C00003C4D6EE00498002806DADDE90601059ABD
:104C100090470498002864DB069C606910B1201D51
:104C200000F004FA03A800F0D7F8024604980A2816
:104C300057D2DFE800F00505052D334A05052D3371
:104C400094F8280040F0010084F828000599A06934
:104C5000059B01442046FFF7A7FF68B3216A204661
:104C6000884794F8280040073BD50020009005981D
:104C7000A169002342181946204601F0B9F8D8B9B5
:104C8000502080F31188BFF34F8FBFF36F8FFEE783
:104C900014F8280F20F00100207022E094F828007A
:104CA00040F0010084F828000598A06128B181181F
:104CB00013462046FFF778FF13E0502080F3118859
:104CC000BFF34F8FBFF36F8FFEE794F82800810783
:104CD00003D4204600F03AFA03E020F0010084F803
:104CE0002800002204A9286800F0D2FD002889D1FC
:104CF00009B030BD580000202DE9FC410F460546A3
:104D000000F074FB01A800F067F80446019818B1A0
:104D100000F0DCFFBDE8FC81254EAFB130690068D2
:104D2000D0B30027291B3A46306800F091FA00F012
:104D3000CDFF0028EED11F494FF080500860BFF32F
:104D40004F8FBFF36F8FE5E7A542EBD800F0BEFFB2
:104D5000F0682746C068C468201D00F067F994F821
:104D60002800410719D5A0692B4641193A4620462B
:104D7000FFF71AFFA8B100200346014600902A461B
:104D8000204601F035F860B9502080F31188BFF358
:104D90004F8FBFF36F8FFEE707E020F0010084F82C
:104DA0002800216A20468847B4E70127BAE70000B7
:104DB0005800002004ED00E00648416B096829B165
:104DC000416BC968C9684968816270474FF0FF311B
:104DD000FAE700001C00002070B5054600F094FEC4
:104DE000064E0446B068844203D200F009F8012060
:104DF00000E0002028602046B46070BD580000200C
:104E0000F8B5194D20E0C068C4680668201D00F0A0
:104E10000DF9216A2046884794F82800400713D5E9
:104E2000A0693044B04206D924616060211DE86861
:104E300000F034F908E000200346014600903246B5
:104E4000204600F0D5FF38B1E86801680029DAD1C2
:104E50002969C5E90310F8BD502080F31188BFF31C
:104E60004F8FBFF36F8FFEE758000020084840685F
:104E7000401C4FF0500080F3118804D0BFF34F8FD7
:104E8000BFF36F8FFEE7BFF34F8FBFF36F8FFEE768
:104E900090000020074CE068016841B1C068002123
:104EA000D0F80000FFF728FFFFF7A8FEF3E7012185
:104EB0000020F7E7580000202DE9F041044600F0FB
:104EC00011F994F9455004F1240609E0606A48B1EB
:104ED000304600F0C3FE08B100F00AFA6D1E6DB254
:104EE000002DF3DC4FF0FF3684F8456000F01AF92E
:104EF00000F0F8F894F9445004F1100709E0206933
:104F000048B1384600F0AAFE08B100F0F1F96D1E74
:104F10006DB2002DF3DC84F84460BDE8F04100F090
:104F200001B900002DE9F0410546002700F05EFAC6
:104F3000324E306808B9FFF751FD706905424ED115
:104F4000C5B3083568070ED005F00700C0F10800AA
:104F50000544680707D0502080F31188BFF34F8FB6
:104F6000BFF36F8FFEE72DB37068854237D82348B3
:104F7000183001460C6801E020460C466168A942E1
:104F800002D221680029F7D131688C4227D0076806
:104F90002168016060680837411B10290FD960192A
:104FA000420708D0502080F31188BFF34F8FBFF322
:104FB0006F8FFEE713E041606560FFF7CFFD61682A
:104FC0007068401A7060B268904200D2B060706938
:104FD00001430020C4E90001F068401CF06000F0CB
:104FE00075FE780707D0502080F31188BFF34F8FEC
:104FF000BFF36F8FFEE73846BDE8F08170000020F8
:1050000010B5031F4FF080741C601B1F21F00101BD
:105010001960191F044B0B6014390A60091F6FF0E7
:10502000020244380A6010BD6D4E0008D0E901321A
:1050300001699A60D0E901235A604A68824201D12D
:1050400082684A60002202610868401E08600868A1
:1050500070470000034B036003F15C000860802090
:1050600010607047840D0020044B036003F15C0066
:1050700008604FF48070106070470000E00F00205F
:1050800000F108014FF0FF32C0E90112C160016177
:1050900000210160704700210161704730B50B6845
:1050A0005A1C02D000F1080202E0026904E0224624
:1050B000546825689D42FAD953684B6099608A60AC
:1050C000516008610168491C016030BD42684A6056
:1050D00093688B6093685960916008610168491C0E
:1050E00001607047502080F31188BFF34F8FBFF3EA
:1050F0006F8F0A494868401C486001280CD1084855
:10510000006810F0FF0F07D0502080F31188BFF324
:105110004F8FBFF36F8FFEE77047000090000020B5
:1051200004ED00E00849486828B1401E486001D1FC
:1051300080F311887047502080F31188BFF34F8FA0
:10514000BFF36F8FFEE700009000002070B50028CD
:105150002AD0164DA0F1080460686969084207D199
:10516000502080F31188BFF34F8FBFF36F8FFEE79E
:1051700022683AB1502080F31188BFF34F8FBFF3FC
:105180006F8FFEE78843606000F030F960686968FF
:10519000084468602046FFF7E1FC2869401C28614C
:1051A000BDE8704000F092BD70BD000070000020AE
:1051B0004FF0E02000210161816105494FF47A72CE
:1051C0000968B1FBF2F1491E416107210161704795
:1051D0001800002010B5FBF7ABF8114910280ED3CA
:1051E00000F1E02090F8F0030A78904207D25020B6
:1051F00080F31188BFF34F8FBFF36F8FFEE709482D
:105200000068896800F4E060884207D9502080F384
:105210001188BFF34F8FBFF36F8FFEE710BD000003
:10522000900000200CED00E010B5084B002200BFFC
:1052300053F832401CB1521C082AF9D310BD43F870
:10524000321003EBC201486010BD00006807002067
:1052500070B515460E460446FFF744FF94F9441016
:105260000020491C01D184F8440094F94510491CE0
:1052700001D184F84500FFF755FFA06B28B92A46F5
:10528000314604F1240000F051F82046BDE870409A
:10529000FFF712BE10B5020014D00F48006B38B1F2
:1052A000502080F31188BFF34F8FBFF36F8FFEE75D
:1052B00000F09CF800211046FFF76AFA00F006FDA6
:1052C000002807D105494FF080500860BFF34F8F89
:1052D000BFF36F8F10BD00001C00002004ED00E044
:1052E00002490A6A0260C968416070471C000020D8
:1052F00001490120C86170471C00002010B50C4610
:1053000050B1094909681831FFF7C8FE2046BDE8C9
:1053100010400121FFF73CBA502080F31188BFF301
:105320004F8FBFF36F8FFEE71C00002070B514464F
:105330000D4668B10A4909681831FFF7C7FE0CB17C
:105340004FF0FF3521462846BDE87040FFF720BAF0
:10535000502080F31188BFF34F8FBFF36F8FFEE7AC
:105360001C00002030B587B00024039405AA04A9CE
:1053700003A80494FFF76EFEDDE903010094CDE974
:105380000110002315A11748059A00F084FB164D63
:105390000028E8621FD000F0FBFC012809D0401C67
:1053A00019D1502080F31188BFF34F8FBFF36F8F57
:1053B000FEE7502080F31188BFF34F8FBFF36F8F4C
:1053C0004FF0FF30A86201206861EC6007B0BDE8D3
:1053D000304000F045B807B030BD000049444C45AE
:1053E00000000000294A00081C0000200248016B50
:1053F000491C0163704700001C000020164810B5CE
:10540000016B11B10121C16110BD0021C1610169B0
:10541000124A01E0B9B1491E01EB810352F8233071
:10542000002BF7D001EB810302EB830202F10804A9
:1054300053685B685360A34201D15B685360DA68CC
:105440000260016110BD502080F31188BFF34F8FBF
:10545000BFF36F8FFEE700001C000020A8070020AC
:105460001CB537480168374A914207D1502080F374
:105470001188BFF34F8FBFF36F8FFEE7006831498C
:10548000491E884207D1502080F31188BFF34F8F07
:10549000BFF36F8FFEE72C4908780190FF2008705A
:1054A00008788DF800009DF800009DF8002000F0BD
:1054B000F000904207D0502080F31188BFF34F8F47
:1054C000BFF36F8FFEE79DF80000204C00F0500006
:1054D00020700720A06005E09DF8002052008DF8A4
:1054E0000020401E9DF800201206F5D4A06003287D
:1054F00007D0502080F31188BFF34F8FBFF36F8F19
:10550000FEE74FF44070A060019808700C4820300E
:10551000016841F470010160016841F0704101606F
:10552000FFF746FE00206060FAF7CAFE08480168EF
:1055300041F040410160FAF7AFFE00201CBD0000C1
:1055400000ED00E071C20F4100E400E09000002097
:1055500034EF00E010B5502080F31188BFF34F8F77
:10556000BFF36F8F00F0D6FA18B104494FF08050A6
:105570000860002080F3118810BD000004ED00E0F9
:1055800038B5049D18B153B1CAB181B120E05020A3
:1055900080F31188BFF34F8FBFF36F8FFEE750206A
:1055A00080F31188BFF34F8FBFF36F8FFEE750205A
:1055B00080F31188BFF34F8FBFF36F8FFEE739B1D0
:1055C000502080F31188BFF34F8FBFF36F8FFEE73A
:1055D00050241C46012384F846302B460094FFF7E4
:1055E00053FA204638BD000070B50D46040025D0A2
:1055F000FFF778FDD4E90F20216802FB0011A160BC
:105600000021A163216861600A46D4E90F01401EB0
:1056100000FB0121E16021464FF0FF3001F8440F0B
:10562000487004F110008DB1FFF72AFD04F1240049
:10563000FFF726FDFFF776FD012070BD502080F3B7
:105640001188BFF34F8FBFF36F8FFEE721690029E9
:10565000F0D000F003FB0028ECD004494FF080505C
:105660000860BFF34F8FBFF36F8FE3E704ED00E0F7
:105670002DE9FF4782B01D468A464FF0000804001E
:1056800003D0BAF1000F08D011E0502080F3118848
:10569000BFF34F8FBFF36F8FFEE7206C38B1502000
:1056A00080F31188BFF34F8FBFF36F8FFEE7022D9A
:1056B0000AD1E06B012807D0502080F31188BFF396
:1056C0004F8FBFF36F8FFEE700F010FA3F4F4FF0A0
:1056D00000094FF0805648B9049838B1502080F343
:1056E0001188BFF34F8FBFF36F8FFEE7FFF7FAFC10
:1056F000A06BE16B884207D3022D05D00498D0B18E
:10570000B8F1000F1AD01EE02A4651462046FFF796
:1057100014F9616A19B104F1240000F09FFA20B174
:105720003E60BFF34F8FBFF36F8FFFF7FBFC01208D
:1057300006B0BDE8F087FFF7F5FC22E06846FFF70A
:10574000CFFD4FF00108FFF7EDFCFFF74FFEFFF72D
:10575000C9FC94F94400401C01D184F8449094F9A8
:105760004500401C01D184F84590FFF7DBFC04A9FB
:10577000684600F029F930B12046FFF79DFB00F0A4
:10578000A5FA0020D4E7FFF7ADFCA06BE16B8842DF
:1057900013D1FFF7C7FC04F110000499FFF7AEFD29
:1057A0002046FFF789FB00F091FA00289ED13E6069
:1057B000BFF34F8FBFF36F8F98E7FFF7B3FC20461F
:1057C000FFF77AFB00F082FA90E7000004ED00E0BA
:1057D0002DE9F0471F4690468946040003D0B9F1F1
:1057E000000F08D011E0502080F31188BFF34F8FD5
:1057F000BFF36F8FFEE7206C38B1502080F3118823
:10580000BFF34F8FBFF36F8FFEE7022F0AD1E06B1C
:10581000012807D0502080F31188BFF34F8FBFF3CA
:105820006F8FFEE7FFF7D6FC5020EFF3118680F371
:105830001188BFF34F8FBFF36F8FA06BE16B88426E
:1058400006D3022F04D0002086F31188BDE8F0872C
:1058500094F94550A06B3A4649462046FFF76DF84B
:10586000681C04D06D1C84F845500120ECE7606A88
:105870000028FAD004F1240000F0F0F90028F4D058
:10588000B8F1000FF1D00121C8F80010EDE70000D9
:105890002DE9F747002683B08A46040003D0BAF109
:1058A000000F08D011E0502080F31188BFF34F8F14
:1058B000BFF36F8FFEE7206C38B1502080F3118862
:1058C000BFF34F8FBFF36F8FFEE700F00FF9DFF8E4
:1058D000F4804FF000094FF0805748B9059838B16F
:1058E000502080F31188BFF34F8FBFF36F8FFEE717
:1058F000FFF7F8FBA56BC5B151462046FFF70AF844
:105900006D1EA563206950B104F1100000F0A6F9E6
:1059100028B1C8F80070BFF34F8FBFF36F8FFFF748
:1059200001FC012006B0BDE8F087059808B11EB162
:1059300006E0FFF7F7FB27E06846FFF7D1FC0126FA
:10594000FFF7F0FBFFF752FDFFF7CCFB94F94400A3
:10595000401C01D184F8449094F94500401C01D1C9
:1059600084F84590FFF7DEFB05A9684600F02CF8A7
:10597000002820460AD0FFF79FFA00F0A7F920463A
:10598000FFF72EF90028B3D00020CBE7FFF728F966
:1059900090B104F124000599FFF7B0FC2046FFF711
:1059A0008BFA00F093F90028A2D1C8F80070BFF379
:1059B0004F8FBFF36F8F9BE72046FFF77DFA00F014
:1059C00085F995E704ED00E02DE9F0410C4605006E
:1059D00011D0C4B1FFF786FB174BDA686E682068F8
:1059E000911B471C17D02F681B6A9F4219D0964203
:1059F00017D8012410E0502080F31188BFF34F8F97
:105A0000BFF36F8FFEE7502080F31188BFF34F8FF5
:105A1000BFF36F8FFEE70024FFF784FB2046BDE84D
:105A2000F081884205D9401A20602846FFF758FCCB
:105A3000F1E700202060DCE71C0000202DE9FF5F7B
:105A40008346DDE90E87994616468A469000FFF7A1
:105A500069FA05001CD05C20FFF764FA040014D03A
:105A60000020256384F85900CDE90240CDE9008784
:105A70004B46324651465846FFF718F82046FEF787
:105A8000B5FE012004B0BDE8F09F2846FFF75EFB9D
:105A90004FF0FF30F6E7F0B585B0DDE90B640A9D05
:105AA000A6B1DCB15C2700972663022684F8596012
:105AB000002604AFCDE90246CDE90057FEF7F6FF18
:105AC0002046FEF793FE049805B0F0BD502080F309
:105AD0001188BFF34F8FBFF36F8FFEE7502080F325
